:100000000C9434000C9451000C9451000C94510049
:100010000C9451000C9451000C9451000C9451001C
:100020000C9451000C9451000C9451000C9451000C
:100030000C9451000C9451000C9453000C945100FA
:100040000C9451000C9451000C9451000C945100EC
:100050000C9451000C9451000C9451000C945100DC
:100060000C9451000C94510011241FBECFEFD8E026
:10007000DEBFCDBF12E0A0E0B1E0EAECFDE302C0DC
:1000800005900D92A23CB107D9F713E0A2ECB2E0C3
:1000900001C01D92A43EB107E1F70E9489000C94B3
:1000A000E31E0C9400001F920F920FB60F921124C2
:1000B0002F933F934F935F936F937F938F939F9370
:1000C000AF93BF93EF93FF938091C2028E3038F0CD
:1000D0001092C2020E941D0B0E941B0B09C08BE0F4
:1000E00091E00E94370B8091C2028F5F8093C20221
:1000F000FF91EF91BF91AF919F918F917F916F9100
:100100005F914F913F912F910F900FBE0F901F90D5
:10011000189514B883E087B91AB815B818B81BB881
:1001200092E094BD85E085BD16BC84E087BD18BC17
:1001300090936E0080E880BF89EC809364008FEF1D
:1001400093E00E94BF1E982F81508E3F10F4909331
:10015000660080E197E228EC30E0F9013197F1F791
:100160000197D9F70E94170B0E941D0B0E941B0BD1
:10017000789480E091E00E94B0150E945D12F9CF62
:10018000CF92DF92EF92FF920F931F93CF93DF9363
:100190006C01C091C302D091C402FC011182108293
:1001A0002481358146815781213031054105510532
:1001B00009F45BC088859985AA85BB85281739070E
:1001C0004A075B0708F051C021153105410551056B
:1001D00039F48881833021F4288939894A895B89F7
:1001E000F601208731874287538721153105410564
:1001F000510581F18EEFE82E8FEFF82E8FEF082F4B
:100200008FEF182FE20EF31E041F151F88859985A6
:10021000AA85BB850297A109B109E816F9060A0764
:100220001B0728F020E030E040E050E017C02981B3
:1002300030E040E050E0C801B7010E946D1C9B0116
:10024000AC018C899D89AE89BF89280F391F4A1F4F
:100250005B1F04C0288939894A895B89F601248794
:1002600035874687578780E001C081E0DF91CF91D5
:100270001F910F91FF90EF90DF90CF9008956F92B4
:100280007F928F929F92AF92BF92CF92DF92EF9226
:10029000FF920F931F93DF93CF9300D000D0CDB781
:1002A000DEB74B015C016090C3027090C40282E033
:1002B00088169104A104B10408F4B4C0F301808548
:1002C0009185A285B38588169906AA06BB0608F013
:1002D000A9C08081823009F45FC0833009F47BC0FB
:1002E000813009F09FC0C40196958795880D991DAE
:1002F0009C013170892F992786956C01EE24FF248B
:10030000F3014485558566857785CE010196F1E038
:100310002F3F3F0749F0C40ED51EE61EF71EB7015A
:10032000A60102E010E01EC04C0D5D1D6E1D7F1D7C
:100330002FEF31E001E010E00E94F80A882309F075
:1003400071C0F30144855585668577854F5F5F4FA2
:100350006F4F7F4F4C0D5D1D6E1D7F1DCE010296B0
:1003600020E030E00E94F80A882309F05BC0698130
:100370007A81C40181709070892B39F0A4E0769560
:100380006795AA95E1F79B0123C09B0140E050E0EF
:100390003F70407050704AC077276B2D5A2D492D01
:1003A000F30184859585A685B785480F591F6A1F77
:1003B0007B1F94013070220F331FCE01019602E0A3
:1003C00010E00E94F80A882369F589819A819C01CE
:1003D00040E050E02BC0B501A40127E07695679579
:1003E000579547952A95D1F7F30184859585A6857C
:1003F000B785480F591F6A1F7B1F94012F773070F4
:10040000220F331F220F331FCE01019604E010E0AC
:100410000E94F80A882331F429813A814B815C815A
:100420005F7004C021E030E040E050E0B901CA0153
:100430000F900F900F900F90CF91DF911F910F9120
:10044000FF90EF90DF90CF90BF90AF909F908F90F4
:100450007F906F900895AF92BF92CF92DF92EF920C
:10046000FF920F931F93CF93DF935C01C091C30260
:10047000D091C402FC01C080D1800894C11CD11C61
:10048000C114D10409F48FC024853585468557856C
:10049000211531054105510509F485C0C6018F704C
:1004A0009070892B09F07AC02F5F3F4F4F4F5F4FFD
:1004B00024873587468757874085518562857385B0
:1004C000411551056105710539F48C819D81C8166E
:1004D000D90608F463C067C0898190E0019796014E
:1004E000E4E036952795EA95E1F782239323892B5B
:1004F00009F054C0CB01BA010E943F019B01AC013D
:10050000623071058105910510F481E04DC0888548
:100510009985AA85BB85281739074A075B0708F024
:1005200042C0F5012087318742875387C091C302BB
:10053000D091C4028EEFE82E8FEFF82E8FEF082FA8
:100540008FEF182FE20EF31E041F151F8885998563
:10055000AA85BB850297A109B109E816F9060A0721
:100560001B0728F020E030E040E050E012C0298175
:1005700030E040E050E0C801B7010E946D1C9B01D3
:10058000AC018C899D89AE89BF89280F391F4A1F0C
:100590005B1FF5012487358746875787F501D18290
:1005A000C08280E001C083E0DF91CF911F910F9165
:1005B000FF90EF90DF90CF90BF90AF9008952F9273
:1005C0003F924F925F926F927F928F929F92AF92E3
:1005D000BF92CF92DF92EF92FF920F931F93CF9330
:1005E000DF93E82FC091C302D091C402209711F489
:1005F00086E00DC18A8180FD02C085E008C1AC8C17
:10060000BD8CCE8CDF8C4E2F592FCB01DA013C01F3
:100610004D01A614B704C804D90410F435014601ED
:10062000288D398D4A8D5B8D188E198E1A8E1B8EF2
:10063000611471048104910409F4E8C08981A82E31
:10064000BB24CC24DD2499E0AA0CBB1CCC1CDD1CF3
:100650009A95D1F72115310541055105B1F11901DF
:100660002A0108942108310841085108C401B30146
:100670006150704080409040A60195010E94B31CDB
:1006800079018A01C201B101A60195010E94B31C42
:10069000E216F30604071507C0F088279927DC0146
:1006A0008A199B09AC09BD0982219321A421B52196
:1006B000888F998FAA8FBB8F681A790A8A0A9B0A3A
:1006C0002CA13DA14EA15FA133C028A139A14AA10F
:1006D0005BA12CA33DA34EA35FA32AC0CA01B9010D
:1006E0000E943F019B01AC016230710581059105BB
:1006F00008F489C088859985AA85BB85281739079C
:100700004A075B0708F07FC02CA33DA34EA35FA35D
:10071000888D998DAA8DBB8D8A0D9B1DAC1DBD1D2D
:10072000888F998FAA8FBB8F6A187B088C089D08C9
:10073000A614B704C804D90488F2888D998DAA8DAF
:10074000BB8D860D971DA81DB91D888F998FAA8F07
:10075000BB8F0091C3021091C4028EEFA82E8FEFC1
:10076000B82E8FEFC82E8FEFD82EA20EB31EC41E48
:10077000D51EF80180859185A285B3850297A109D0
:10078000B109A816B906CA06DB06E8F5218130E0F2
:1007900040E050E0C601B5010E946D1C9B01AC0118
:1007A000F80184899589A689B789280F391F4A1FBE
:1007B0005B1F211531054105510529F1D401C30104
:1007C00019E0B695A795979587951A95D1F7982F23
:1007D0008B83FFEFEF2EF1E0FF2E012D112D6E2008
:1007E0007F2080229122611471048104910471F0B0
:1007F000280F311D411D511D28A739A74AA75BA706
:100800009F5F9B8303C01A8281E001C080E0DF917B
:10081000CF911F910F91FF90EF90DF90CF90BF90FD
:10082000AF909F908F907F906F905F904F903F9090
:100830002F900895AF92BF92CF92DF92EF92FF92E6
:100840000F931F93DF93CF93CDB7DEB7AC970FB65F
:10085000F894DEBF0FBECDBF7C015B01E091C30207
:10086000F091C402309711F486E0C6C0CE010D9617
:1008700097838683CE010196D70113969C938E931E
:1008800012976115710521F4C7010E94C000B4C020
:10089000C680D78083E026C0F701208131812F7088
:1008A0003070E5E0220F331FEA95E1F7C60100E260
:1008B00010E00E94F80A882311F081E01FC0D601E1
:1008C0009C91992309F4A9C01B968C91953E29F01F
:1008D0009E3219F08F7383FF1DC0C7010E942B0247
:1008E000882361F4F7014485558566857785411530
:1008F00051056105710581F6882361F0D7011C96C9
:100900001D921D921D921C921F97833019F088230F
:1009100009F072C09501275F3F4FF70184859585E7
:10092000A685B7850097A105B10509F456C0E091E9
:10093000C302F091C4024681578180E090E0FA0141
:10094000E80FF91FE081E03251F0E53009F4E5EEFF
:10095000D901ED939D0101968830910581F7FA0147
:100960008085803211F4F90110C0F9018EE2819383
:10097000DA012C5F3F4F18968C911897803229F03E
:1009800081931196E217F307B1F7DA011B968C9168
:10099000D50118968C93DA015C960D911D912D91DD
:1009A0003C915F97D5010D931D932D933C93139725
:1009B000DA0158968D919C915997D50115969C9383
:1009C0008E931497DA0156968D919C915797D50185
:1009D00017969C938E9316979F01F9011082C70179
:1009E0000E942B02833041F4D7011C961D921D9268
:1009F0001D921C921F9780E0AC960FB6F894DEBF54
:100A00000FBECDBFCF91DF911F910F91FF90EF905F
:100A1000DF90CF90BF90AF90089583E06FCF8F921B
:100A20009F92AF92BF92CF92DF92EF92FF920F937D
:100A30001F93CF93DF93EC016B0103C00894C11C9B
:100A4000D11CF60180818032C9F38F3219F40894E9
:100A5000C11CD11C1C821D821E821F82F601808156
:100A6000813268F4CE010E94C000B82EE091C3022A
:100A7000F091C4020680F781E02D1082C8C080E2A8
:100A8000882E992493944A815B81FA018BE090E04F
:100A900001C0819201972FEF8F3F9207D1F730E08D
:100AA000AA2468E002C038E06BE0F601EA0DF11D0F
:100AB0002081A3942132A8F12F3299F12E3211F026
:100AC000361728F0683069F52E3269F32AC0822F74
:100AD00081588F3118F08F558D31C0F4A32FB0E0BD
:100AE000862F90E00197A817B90784F4F601EA0D64
:100AF000F11D9081A394A40FB51F2C93832F8F5FBA
:100B0000FA01E80FF11D90833E5FCFCF822F81560F
:100B10008A3108F42052FA01E30FF11D20833F5F70
:100B2000C4CFFA011386213208F49386CE010E94C5
:100B3000C000B82E882309F03FC0E091C302F091B5
:100B4000C402E680F7804C855D856E857F852881AF
:100B500039812F70307005E0220F331F0A95E1F7BD
:100B6000C70100E210E00E94F80A882311F081E03A
:100B700022C0F7018081882309F457C0838583FD53
:100B800015C0D7018A819B819C01F9012BE030E0DF
:100B9000215030408FEF2F3F380709F449C09C9116
:100BA0008081981719F411963196F2CFCE010E94E8
:100BB0002B02882341F2B82EE3E0BE1641F5EA810C
:100BC000FB818385882309F122C0E091C302F09163
:100BD000C4020680F781E02D838584FF16C0CA0C0D
:100BE000D11C84899589A0E0B0E0DC019927882791
:100BF000228D338D40E050E0822B932BA42BB52B1C
:100C00008C839D83AE83BF833ECFA4E0BA2E8B2D11
:100C1000DF91CF911F910F91FF90EF90DF90CF90D8
:100C2000BF90AF909F908F900895F3E0BF2EC7CFF5
:100C3000EA81FB818385882341F2E9CFEF92FF921D
:100C40000F931F93DF93CF93CDB7DEB7AC970FB65B
:100C5000F894DEBF0FBECDBF8C01E091C302F091CE
:100C6000C402309711F486E032C03DE0E32EF12C4F
:100C7000EC0EFD1EF782E682CE010196F801938309
:100C80008283C8010E940F058823F1F48D85882393
:100C9000C1F0888D84FF1AC0F70184899589A0E08E
:100CA000B0E0DC0199278827228D338D40E050E0A9
:100CB000822B932BA42BB52BF80184839583A683D9
:100CC000B783C8010E94C000833009F484E0AC9669
:100CD0000FB6F894DEBF0FBECDBFCF91DF911F914D
:100CE0000F91FF90EF900895EF92FF920F931F9353
:100CF000DF93CF93CDB7DEB7EC970FB6F894DEBF96
:100D00000FBECDBFBC010091C3021091C4020115FA
:100D1000110511F466E041C0F80112825DE1E52E93
:100D2000F12CEC0EFD1EF782E682CE010196988B27
:100D30008F87CE010D960E940F05682F882369F5D5
:100D40008D8D882349F188A584FD26C0F70184890B
:100D50009589A0E0B0E0DC0199278827228D338DAA
:100D600040E050E0822B932BA42BB52BF80180A3FD
:100D700091A3A2A3B3A3F701848D958DA68DB78D02
:100D8000F801848F958FA68FB78F108E118E128EDB
:100D9000138E81E0828301C063E0862FEC960FB64C
:100DA000F894DEBF0FBECDBFCF91DF911F910F91A1
:100DB000FF90EF9008954F925F926F927F928F9283
:100DC0009F92AF92BF92CF92DF92EF92FF920F93DA
:100DD0001F93CF93DF933C016B014A01C091C30283
:100DE000D091C402FA0111821082209711F486E09A
:100DF000DAC08A8180FD02C085E0D5C02C8D3D8D92
:100E00004E8D5F8D888D998DAA8DBB8D281B390BDA
:100E10004A0B5B0BCB01A0E0B0E0281739074A076B
:100E20005B0708F469015301412CF2E05F2EB3C067
:100E3000E88CF98C0A8D1B8DD801C7019170A070C8
:100E4000B0700097A105B10509F06BC0C801B701EA
:100E5000E9E09695879577956795EA95D1F7298189
:100E600030E040E050E00E94B31C6115710581053F
:100E70009105D9F4E114F1040105110529F468A1E3
:100E800079A18AA19BA106C06CA17DA18EA19FA181
:100E90000E943F01623071058105910508F481C00F
:100EA0006CA37DA38EA39FA31B820091C30210910C
:100EB000C4022CA13DA14EA15FA122503040404070
:100EC0005040F80180859185A285B3850297A109DC
:100ED000B109281739074A075B0708F062C061812A
:100EE00070E080E090E00E946D1C9B01AC01F80175
:100EF00084899589A689B789280F391F4A1F5B1FE6
:100F0000211531054105510509F44BC08B81280F8E
:100F1000311D411D511D28A739A74AA75BA78F5F27
:100F20008B83088D198D2A8D3B8DC8019170A2018C
:100F3000481B590B76014C155D0508F47A016114C4
:100F4000710419F480E090E001C0C50148A559A5DD
:100F50006AA57BA59801317087010E94F80A882351
:100F600001F5C701A0E0B0E0288D398D4A8D5B8D79
:100F7000280F391F4A1F5B1F288F398F4A8F5B8FBD
:100F8000AE0CBF1CCE18DF08F401808191818E0D5C
:100F90009F1D91838083C114D10409F049CF80E063
:100FA00002C01A8281E0DF91CF911F910F91FF90D3
:100FB000EF90DF90CF90BF90AF909F908F907F90F9
:100FC0006F905F904F900895AF92BF92CF92DF9253
:100FD000EF92FF920F931F93CF93DF93B82EA92E1A
:100FE0006A017B012EEF31E002E010E00E94F80A76
:100FF000882311F023E033C0CB2DDA2D888199812D
:1010000085559A4A11F022E02AC08B2D9A2DB701FE
:10101000A60126E330E002E010E00E94F80A8823EF
:1010200039F4888199818654914411F420E017C0E5
:101030008B2D9A2DB701A60122E530E002E010E0E9
:101040000E94F80A882311F021E009C020E088817D
:1010500099818654914409F421E081E02827822F68
:10106000DF91CF911F910F91FF90EF90DF90CF9084
:10107000BF90AF9008956F927F928F929F92AF92A0
:10108000BF92CF92DF92EF92FF920F931F93DF9365
:10109000CF93CDB7DEB7A4970FB6F894DEBF0FBEDF
:1010A000CDBF5C011092C4021092C302009709F4F4
:1010B000EDC00E94100B80FF02C082E0ECC04E0128
:1010C0000894811C911CC40140E050E060E070E095
:1010D0000E94E407813021F0CC24DD2476011BC07E
:1010E000C40140E050E060E070E02EEB31E000E150
:1010F00010E00E94F80A882309F0CAC08D81882375
:1011000009F4C8C0C984DA84EB84FC84C401B70143
:10111000A6010E94E407833009F4BAC0882309F0CD
:10112000B9C0CE010196B701A6012DE030E004E27E
:1011300010E00E94F80A882309F0AAC08A859B85DE
:10114000BC0180E090E0611571058105910521F4F5
:10115000688D798D8A8D9B8D2C8130E040E050E048
:101160000E946D1C3B014C018A819B81A0E0B0E094
:10117000C80ED91EEA1EFB1EF501C486D586E6867A
:10118000F786898181832D813E81358324838F81F8
:1011900098857C0100E010E0E114F10401051105DF
:1011A00021F4EC88FD880E891F898A819B81A0E04B
:1011B000B0E0E81AF90A0A0B1B0BE618F708080951
:1011C0001909B4E036952795BA95E1F7C901A0E071
:1011D000B0E0E81AF90A0A0B1B0BF501218130E097
:1011E00040E050E0C801B7010E94B31C2E5F3F4FA2
:1011F0004F4F5F4FF5012087318742875387273F45
:10120000FFE03F07F0E04F07F0E05F0710F481E0F8
:1012100008C0275F3F4F4040504010F083E001C0BE
:1012200082E0F5018083833029F488A199A1AAA1E5
:10123000BBA109C0F50184859585A685B785860D76
:10124000971DA81DB91D808B918BA28BB38BF501C7
:1012500084819581A4E096958795AA95E1F7A0E011
:10126000B0E02485358546855785820F931FA41FDE
:10127000B51F860D971DA81DB91D848B958BA68B58
:10128000B78B1282B092C402A092C30280E003C066
:1012900081E001C087E0A4960FB6F894DEBF0FBED0
:1012A000CDBFCF91DF911F910F91FF90EF90DF9015
:1012B000CF90BF90AF909F908F907F906F90089548
:1012C000982F2A9A8FEF8EBD0DB407FEFDCF8EB5F5
:1012D0002A9890649EBD0DB407FEFDCF8EB5E8E15F
:1012E000F0E0DB01CA010E2E04C0B695A7959795D4
:1012F00087950A94D2F78EBD0DB407FEFDCF8EB54B
:1013000038978FEFE83FF80761F7220F21602EBD75
:101310000DB407FEFDCF8EB590E02FEF01C09F5FAB
:101320002EBD0DB407FEFDCF8EB587FF02C09830ED
:10133000B1F70895AF92BF92CF92DF92EF92FF92F2
:101340000F931F93CF93DF936B017C015A01E90147
:1013500081E1B701A60120E00E946009482F88239F
:1013600009F04EC080E197E23FEF03C0019709F416
:1013700046C03EBD0DB407FEFDCF2EB52F3FB1F3E5
:101380002E3FE9F59E018FEF07C08EBD0DB407FE1D
:10139000FDCF9EB52150304021153105B1F70CC06D
:1013A0009EBD0DB407FEFDCF8EB5F501E20FF31F14
:1013B00080832F5F3F4F01C09FEF2017310780F3DD
:1013C000882799278C1B9D0B80509E4F801B910B6B
:1013D0002FEF06C02EBD0DB407FEFDCF3EB5019721
:1013E0000097C1F78FEF8EBD0DB407FEFDCF8EB510
:1013F0008FEF8EBD0DB407FEFDCF8EB501C0422F1D
:101400002A9A842FDF91CF911F910F91FF90EF9037
:10141000DF90CF90BF90AF900895EF92FF920F931F
:101420001F93CF93DF937C0184B18C6284B982E5F2
:101430008CBD81E08DBD2A9A8AE090E02FEF2EBD11
:101440000DB407FEFDCF3EB50197C9F72A9888EE87
:1014500093E02FEF2EBD0DB407FEFDCF3EB50197F3
:10146000C9F7CAE0D0E080E040E050E060E070E022
:101470002AE40E946009182F813039F0219799F7EA
:10148000882309F0A7C010E8A5C088E04AEA51E027
:1014900060E070E023E40E946009823010F58FEF75
:1014A0008EBD0DB407FEFDCF8EB58FEF8EBD0DB492
:1014B00007FEFDCF8EB58FEF8EBD0DB407FEFDCFBD
:1014C0003EB58FEF8EBD0DB407FEFDCF2EB5932F29
:1014D00080E030E0822B932B8A5A914011F402E095
:1014E00018C087E340E050E060E070E020E00E9438
:1014F0006009823068F489E240E050E060E070E02A
:1015000020E00E946009182F823010F401E001C031
:1015100000E0C0E3D5E720C0002311F481E014C04F
:1015200087E340E050E060E070E020E00E94600966
:10153000182F823088F4023031F440E050E060E04F
:1015400070E489E205C089E240E050E060E070E0CC
:1015500020E00E946009182F112321F02197E1F665
:1015600011E838C08AE340E050E060E070E020E03D
:101570000E946009182F8FEF8EBD0DB407FEFDCFBE
:101580008EB590E026E0969587952A95E1F7982FFD
:101590009170F70190838FEF8EBD0DB407FEFDCFE4
:1015A0008EB58FEF8EBD0DB407FEFDCF8EB58FEFDC
:1015B0008EBD0DB407FEFDCF8EB5112359F49923CE
:1015C00049F480E140E052E060E070E020E00E94F9
:1015D0006009182F2A9A8CB58D7F8CBD812FDF91E1
:1015E000CF911F910F91FF90EF90089581E00895A2
:1015F0000F931F93FC018091C502882339F489E081
:10160000440F551F661F771F8A95D1F7CB01BA018A
:10161000AF010E949A09811181E01F910F910895F5
:1016200085EC92E00E940D0A811181E008958AB153
:1016300087608AB908955A9808955A9A0895AC0116
:101640002FE030E0CA01022E02C0969587950A94D9
:10165000E2F780FF02C0589801C0589A599A5998E9
:10166000215030408FEF2F3F380761F708951F93C7
:101670001091C602E12FF0E0EE0FFF1FE80FF91FF7
:10168000808191810E941F0B80E0599A59988F5F49
:101690008830D9F7812F90E001966EE070E00E94CB
:1016A000A01C8093C6021F910895DF92EF92FF92D3
:1016B0000F931F93CF93DF938C01C0E0D0E045E8F8
:1016C000D42E38E5E32E32E0F32EF801EC0FFD1FA7
:1016D000808191810E941F0B8D2D8A95F1F780E00A
:1016E000599A59988F5F8830D9F7C7010197F1F758
:1016F0002296CC31D10549F780E0DF91CF911F913F
:101700000F91FF90EF90DF900895982F8091C00087
:1017100085FFFCCF9093C60080E090E008959C0187
:1017200040E050E060E271EA87E090E00E94B31C84
:10173000215030403093C5002093C40088E180934D
:10174000C10085E89BE060E070E00E943E1E0895C5
:10175000DC011296ED91FC91139714968D919C915A
:101760001597E817F90770F087E291E00E948A1E4A
:10177000409A8BE091E06FEF7FEF4CE150E00E94E8
:10178000111EF6CF619371931396FC93EE9312970B
:101790000895DC011296ED91FC9113978D919C9127
:1017A00011978E179F0770F08BE291E00E948A1EBE
:1017B000409A8BE091E06FEF7FEF4CE150E00E94A8
:1017C000111EF6CF32971396FC93EE9312978081F9
:1017D000918108957F928F929F92AF92BF92CF9204
:1017E000DF92EF92FF920F931F93DF93CF9300D07E
:1017F00000D00F92CDB7DEB76A018B01EE24FF2433
:1018000093E0892E912C8C0E9D1E5E010894A11CE4
:10181000B11C82E0782E27C0C40163E070E0A5010E
:101820000E94DB0688B1872588B989819A81892B36
:1018300071F48FE291E00E948A1E409A8BE091E061
:101840006FEF7FEF4CE150E00E94111EF6CF8B81CD
:10185000F80180838C8184838D8180870894E11CCA
:10186000F11C0F5F1F4FEC14FD04B0F20F900F90AE
:101870000F900F900F90CF91DF911F910F91FF90DC
:10188000EF90DF90CF90BF90AF909F908F907F9020
:1018900008959F92AF92BF92CF92DF92EF92FF9204
:1018A0000F931F93DF93CF9300D00F92CDB7DEB786
:1018B0006B018A01790132E0A32EB12CAC0EBD1E62
:1018C000CE01019661E070E0A5010E94DB0688B1BF
:1018D00022E0922E892588B98A819B81892B51F437
:1018E00083E391E00E948A1E81E0F8018083F70182
:1018F000108227C0F80110826981F7016083662396
:1019000021F481E08093C7021CC01092C702C60177
:1019100070E0A5010E94DB0688B1892588B98A811B
:101920009B81892B71F487E391E00E948A1E409A83
:101930008BE091E06FEF7FEF4CE150E00E94111ED1
:10194000F6CF0F900F900F90CF91DF911F910F91D5
:10195000FF90EF90DF90CF90BF90AF909F90089551
:10196000AF92BF92CF92DF92EF92FF920F931F93AD
:10197000DF93CF93CDB7DEB7C250D1400FB6F89406
:10198000DEBF0FBECDBF8C0153E0A52EB12CAC0E37
:10199000BD1E42E0C42ED12CCC0EDD1E7E0108946B
:1019A000E11CF11CC801B501A60197010E94490C78
:1019B0008A81882321F08BE391E00E948A1E8A812C
:1019C000882319F48981882369F7CE5FDE4F0FB62B
:1019D000F894DEBF0FBECDBFCF91DF911F910F9165
:1019E000FF90EF90DF90CF90BF90AF900895EF926F
:1019F000FF920F931F93DF93CF93CDB7DEB7C25003
:101A0000D1400FB6F894DEBF0FBECDBF7C018B0175
:101A1000BE016D5F7F4FAE014E5F5F4F9E012F5F36
:101A20003F4F0E94490C8A81882371F08FE391E037
:101A30000E948A1E409A8BE091E06FEF7FEF4CE1AD
:101A400050E00E94111EF6CF8981843070F483E447
:101A500091E00E948A1E409A8BE091E06FEF7FEF49
:101A60004CE150E00E94111EF6CF4B81842F8695E9
:101A700086958770F8018083842F869590E0817029
:101A8000907081839D8180E02C8130E0822B932BAC
:101A90009383828350E04170507044838E818583AC
:101AA000C7010E94B00CCE5FDE4F0FB6F894DEBFC8
:101AB0000FBECDBFCF91DF911F910F91FF90EF909F
:101AC00008953F924F925F926F927F928F929F9272
:101AD000AF92BF92CF92DF92EF92FF920F931F933C
:101AE000DF93CF9300D0CDB7DEB78C013B01442309
:101AF00009F457C01092C8021092C90282E090E027
:101B00009093AA038093A90380E190E09093AC03A3
:101B10008093AB031092AD03EE24FF249FC0FA0123
:101B2000E853FD4F329781918093C8028081809362
:101B3000C902C701841B950BF3E0880F991FFA9522
:101B4000E1F78A0D9B1D9093AC038093AB03F09259
:101B5000AA03E092A903C8016AEC72E0A20196010F
:101B60000E94490C8A81882339F087E491E00E9421
:101B70008A1E20E030E003C08981282F30E01092D7
:101B8000AD032115310511F43092AD038091A90305
:101B90009091AA03280F391F3093AA032093A90319
:101BA0000EC0E2E0EE2EF12C72E0472E512C4C0ECE
:101BB0005D1E6E010894C11CD11C33243394A09087
:101BC000AB03B090AC0343018A0C9B1C4091A9036A
:101BD0005091AA039A0163E0220F331F6A95E1F73F
:101BE0002815390534F48091AD03882309F497CF83
:101BF0004AC0CC24DD24EE24FF2426C08BE491E0EF
:101C00000E948A1E46C0C80168E070E00E94A01CC5
:101C1000FB01E853FD4F208130E0C80168E070E02F
:101C20000E94A01C02C0359527958A95E2F7217085
:101C300030700C2C02C0220F331F0A94E2F7E22A04
:101C4000F32A0894C11CD11C86010A0D1B1DC61461
:101C5000D704CCF29092AC038092AB03C7010F90F3
:101C60000F90CF91DF911F910F91FF90EF90DF9038
:101C7000CF90BF90AF909F908F907F906F905F902C
:101C80004F903F9008952A193B09121613060CF441
:101C9000B5CFEE24EA94FE2CE1CF6F927F928F9223
:101CA0009F92AF92BF92CF92DF92EF92FF920F93EB
:101CB0001F93CF93DF93EC01F2E1CF2EF1E0DF2E03
:101CC000C80ED91EE7E18E2EE1E09E2E880E991EE9
:101CD00074E1A72E71E0B72EA80EB91E61E0662E42
:101CE000712C55E1E52E51E0F52EE80EF91E2A8102
:101CF0003B81888199812817390711F0CE0106C1EF
:101D00008E819F81892B69F11F821E828E010E5E5A
:101D10001E4F47E1E42E41E0F42EEC0EFD1E6885D7
:101D20007985F8018081918140E00E94610D8E8764
:101D30009F87888B998B9C01F7018081918128175F
:101D4000390769F3C75EDE4F888199812817390703
:101D500009F0E2C08091C702882309F0DBC0F801D6
:101D60003FC068857985F6018081918140E00E94BD
:101D7000610D8C01FFEF8F3F9F0719F42FEF3FEFAD
:101D8000CBC0F4018081918108171907B9F4F501DE
:101D9000808190E0019699878887930102C0220F85
:101DA000331F8A95E2F73B872A87F701808191816B
:101DB00003969D878C877F826E8299CFC801802E83
:101DC000792EC75EDE4F88819981C951D1400817AD
:101DD000190759F48091C702882309F09BC0F601C6
:101DE000808191810E94B00C95C08C859D850817DB
:101DF00019073CF06E857F85CE010E94A80B0889EB
:101E00001989AC2E9D2EEE24FF24BB2435E1C32E70
:101E100031E0D32ECC0EDD1E24C0F1E4EF16F10428
:101E200038F08FE491E00E948A1EBB24B39419C05D
:101E30000894E11CF11C075B1F4FF801EE0FFF1F18
:101E4000EC0FFD1F608171818A2D992D0E94A80BD6
:101E5000F801E054F040EE0FFF1FEC0FFD1F008172
:101E60001181F601808191818017910714F4BB20C4
:101E7000A1F2075B1F4F000F111F0C0F1D1FF80170
:101E8000608171817F876E878A2D992D0E94A80BB2
:101E90002C853D852034310580F5F9013996EE0F0A
:101EA000FF1FEC0FFD1F8889998991838083275B31
:101EB0003F4FF901EE0FFF1FEC0FFD1F8E859F8531
:101EC00091838083285430403D872C878A859B8569
:101ED0002817390794F028853985263031056CF4A8
:101EE0002F5F3F4F3987288781E090E002C0880F3D
:101EF000991F2A95E2F79B878A87888A798ABB206F
:101F000019F02DEF3FEF08C08A2D992D0E94C90BC3
:101F10009C0102C02EEF3FEFC901DF91CF911F91CD
:101F20000F91FF90EF90DF90CF90BF90AF909F9078
:101F30008F907F906F900895CF93DF93EC01FB011A
:101F40009A016115710519F04115510519F481E0E7
:101F500090E012C08FEF9FEFBA010E948C1C6E17A9
:101F60007F0718F4198218820BC02E9FC0012F9F83
:101F7000900D3E9F900D11240E940C1D8883998323
:101F8000DF91CF9108958F929F92AF92BF92CF929F
:101F9000DF92EF92FF920F931F93DF93CF9300D0C6
:101FA000CDB7DEB75C016B016F5F7F4FCE0101964D
:101FB00042E050E00E949C0FF980EA800F2D1E2D18
:101FC0000115110571F483E591E00E948A1E409A83
:101FD0008BE091E06FEF7FEF4CE150E00E94111E2B
:101FE000F6CFCA9CC001CB9C900DDA9C900D1124B9
:101FF0000E940C1DAC01F601EE0FFF1F0097F1F5DA
:10200000E00FF11F118210828F2D9E2D9C0149013E
:10201000EE24FF242FC08FEF9FEFB5010E948C1C90
:10202000672B71F487E591E00E948A1E409A8BE04D
:1020300091E06FEF7FEF4CE150E00E94111EF6CF70
:10204000C5010E940C1DF401819391934F010097EB
:1020500071F48BE591E00E948A1E409A8BE091E03A
:102060006FEF7FEF4CE150E00E94111EF6CF089415
:10207000E11CF11CEC14FD0470F217C0E00FF11F1D
:10208000918380832F2D3E2DC901FC0120E030E09B
:1020900007C0CA018A199B09819391932F5F3F4F13
:1020A0004A0D5B1D2C153D05A0F3C8010F900F9044
:1020B000CF91DF911F910F91FF90EF90DF90CF9024
:1020C000BF90AF909F908F9008952F923F924F9224
:1020D0005F926F927F928F929F92AF92BF92CF92B8
:1020E000DF92EF92FF920F931F93DF93CF93CDB7C1
:1020F000DEB7C452D1400FB6F894DEBF0FBECDBFDD
:102100005C01CE5DDE4F79836883C252D1401A01F3
:10211000490128013701CC5DDE4FC882C452D1404D
:10212000CE01019661E070E0AE014E5F5F4F0E940C
:10213000DB0688B192E0892788B98A819B81892B47
:1021400071F48FE591E00E948A1E409A8BE091E045
:102150006FEF7FEF4CE150E00E94111EF6CFA98196
:10216000A73070F083E691E00E948A1E409A8BE0CF
:1021700091E06FEF7FEF4CE150E00E94111EF6CF2F
:102180008A2F90E061E070E00A2E02C0660F771F90
:102190000A94E2F79B0121503040FE01789640E01E
:1021A00050E00AC011821082E058FF4F51834083F3
:1021B0004F5F5F4FEE57F0402417350798F70196B1
:1021C0009F878E8701E010E0A80102C0440F551FD1
:1021D0008A95E2F7598B488B2D5F3F4F3B8B2A8BBB
:1021E0001D870C8721503040FE01E15EFE4F318398
:1021F000208322503040FE01E35EFE4F71836083F6
:10220000FE01E55EFE4F31832083FE01E65EFE4F58
:10221000A083FE01E85EFE4FB182A082C50160E0AE
:1022200070E041E00E94610D1D870C87CE0104968D
:1022300060E870E042E050E00E949C0F8C819D813C
:102240009F838E83009771F487E691E00E948A1E37
:10225000409A8BE091E06FEF7FEF4CE150E00E94FD
:10226000111EF6CF9987888780509F4F9B878A875A
:10227000CF5DDE4F1882C152D14000E010E086E011
:10228000A82EB12CAC0EBD1EAFC0C5010E944D0ED4
:102290005FEF8E3F9507B1F0EFEF8F3F9E0701F1A3
:1022A000FFEF8D3F9F0751F58BE691E00E948A1E5C
:1022B000409A8BE091E06FEF7FEF4CE150E00E949D
:1022C000111EF6CF8FE691E00E948A1E409A8BE0A5
:1022D00091E06FEF7FEF4CE150E00E94111EF6CFCE
:1022E00083E791E00E948A1E409A8BE091E06FEFB5
:1022F0007FEF4CE150E00E94111EF6CFA82FB0E016
:10230000A615B70570F087E791E00E948A1E409AF3
:102310008BE091E06FEF7FEF4CE150E00E94111EE7
:10232000F6CFF601208131812E0D3F1DA40DB51D84
:102330008C91F90180830894E11CF11CE214F304F0
:1023400009F0A3CFCC5DDE4FF881C452D140FF230A
:1023500009F448C0CF5DDE4F2881C152D140213001
:1023600039F0213028F0223031F0233081F506C0D9
:10237000085F1F4F2CC00C5F1F4F29C00E5F1F4FFF
:1023800026C004E010E0CF5DDE4F4881C152D1404D
:102390004130A9F0413018F0423099F707C051E0C0
:1023A000CF5DDE4F5883C152D14011C083E0CF5D75
:1023B000DE4F8883C152D14001E010E008C092E0B6
:1023C000CF5DDE4F9883C152D14002E010E0081586
:1023D000190550F0CF5DDE4FE881C152D140E330A6
:1023E00081F602C00F5F1F4F0815190570F46801D0
:1023F000CC0CDD1CCE5DDE4F48815981C252D140EC
:10240000C40ED51EEE24FF2440CFCE0106960E94B6
:102410004D0E97FD04C08BE791E00E948A1E8E81CD
:102420009F810E94B91DCC5DDE4F0FB6F894DEBFD0
:102430000FBECDBFCF91DF911F910F91FF90EF9015
:10244000DF90CF90BF90AF909F908F907F906F90D4
:102450005F904F903F902F900895CF92DF92EF9230
:10246000FF920F931F93CF93DF938C016B01FB01BE
:10247000EE0FFF1FE00FF11F80819181009721F483
:102480007801C0E0D0E00AC00E94B91D0AC0F7017F
:10249000819191917F010E94B91D2196CC15DD0596
:1024A000B0F3C8010E94B91DDF91CF911F910F9128
:1024B000FF90EF90DF90CF9008952F923F924F9230
:1024C0005F926F927F928F929F92AF92BF92CF92C4
:1024D000DF92EF92FF920F931F93DF93CF93CDB7CD
:1024E000DEB7C255D0400FB6F894DEBF0FBECDBFE9
:1024F0003C018E01015F1F4FC80166E070E0AE0134
:102500004F5F5F4F0E94DB0688B192E0892788B950
:1025100089819A81892B71F48FE791E00E948A1E4C
:10252000409A8BE091E06FEF7FEF4CE150E00E942A
:10253000111EF6CFC80163E871E043E050E00E944D
:10254000211E009771F087E891E00E948A1E409A50
:102550008BE091E06FEF7FEF4CE150E00E94111EA5
:10256000F6CF8E010B5F1F4FC801BE016E5E7F4F1D
:1025700043E050E00E942F1E1886C8016BE871E00E
:102580000E94181E0097A9F0C8016FE871E00E9430
:10259000181E009771F083E991E00E948A1E409A0C
:1025A0008BE091E06FEF7FEF4CE150E00E94111E55
:1025B000F6CFCE010F9667E070E0AE014F5F5F4F40
:1025C0000E94DB0688B192E0892788B989819A81C7
:1025D000892B71F487E991E00E948A1E409A8BE072
:1025E00091E06FEF7FEF4CE150E00E94111EF6CFBB
:1025F000988980E02F8530E0822B932B98A38F8FD2
:102600009A8980E0298930E0822B932B9AA389A3B1
:102610008B8987708F5F8BA38C898CA36D896623D0
:1026200029F4E0E070E080E86FE315C070E08827EF
:1026300077FD8095982F0E944D1920E030E040E70B
:1026400051E40E94661720E030E040E85CE30E941D
:102650009317E62F692F2E2F372F482F562FC9019A
:10266000DA018DA39EA3AFA3B8A72B89822F90E098
:1026700087709070019641E050E002C0440F551FF2
:102680008A95E2F75AA749A727FF06C0C301BE01F2
:10269000655D7F4F0E94EA0B6DA17EA18FA198A579
:1026A00020E030E040E85FE30E948D18882321F0AD
:1026B0008BE991E00E948A1E8F8D98A1409721F4AA
:1026C00089A19AA10E9711F0409A30C219861A86F4
:1026D0001C861B861D861E86CE01019661E070E079
:1026E000AE014D5F5F4F0E94DB0688B122E082277A
:1026F00088B98B819C81892B71F48FE991E00E94CC
:102700008A1E409A8BE091E06FEF7FEF4CE150E042
:102710000E94111EF6CF89818B3309F407C28132E2
:1027200069F5CE01019661E070E0AE014D5F5F4F4B
:102730000E94DB0688B132E0832788B98B819C81B7
:10274000892B71F483EA91E00E948A1E409A8BE003
:1027500091E06FEF7FEF4CE150E00E94111EF6CF49
:102760008981893F39F4C301BE01675F7F4F0E94B1
:10277000F70CB2CFC3010E94B00CAECF8C3229F05F
:1027800087EA91E00E948A1EA7CFCE010F9669E0EA
:1027900070E0AE014D5F5F4F0E94DB0688B192E0B2
:1027A000892788B98B819C81892B71F48BEA91E010
:1027B0000E948A1E409A8BE091E06FEF7FEF4CE120
:1027C00050E00E94111EF6CFE8896196EFAF619745
:1027D00060961FAE60978F8590E061962EAD3FADFD
:1027E0006197822B932B98AF8FAB3A8963963FAF5B
:1027F000639762961FAE6297898990E06396EEAD0B
:10280000FFAD63978E2B9F2B9AAF89AF3C88222414
:102810008B8990E0822993299CAF8BAF5E884424FA
:102820008D8990E0842995299EAF8DAF4F89242F03
:1028300030E0C90156E0969587955A95E1F7817089
:102840008FAF4423440F440B417021964FAF219723
:10285000277030702F5F3F4F81E090E002C0880FFB
:10286000991F2A95E2F72F969FAF8EAF2F976DADE8
:102870007EAD8BAD9CAD0E94C30F4C01009771F4EF
:102880008FEA91E00E948A1E409A8BE091E06FEF00
:102890007FEF4CE150E00E94111EF6CF21968FADE4
:1028A0002197882309F4A0C02F964EAD5FAD2F97D6
:1028B000C301BE016F5B7F4F0E94EA0B4BAD5CAD65
:1028C0002DAD3EAD2F96EEACFFAC2F97C301B401FA
:1028D0008E010F5B1F4FCFACAE840E946510CBAC56
:1028E000DCACEDACFEAC840160E070E032C0F8011D
:1028F00080819181840F951FFC018081813C70F063
:102900002D913C91119781E090E0042E02C0880F38
:10291000991F0A94E2F7822B932B0FC02D913C91C3
:10292000119781E090E0042E02C0880F991F0A944D
:10293000E2F7809590958223932311969C938E9332
:102940004F5F5F4F4C155D0590F26F5F7F4F0E5FDD
:102950001F4F6E157F0540F440E050E0DB01AA0FE9
:10296000BB1FA55FBE4FEECF2B853C85B901660F1F
:10297000771F660F771F620F731F80E090E00E9441
:10298000FF195B016C0120E030E04AEF54E40E9443
:1029900093177B018C0120E030E040E85FE30E9468
:1029A0001D1988230CF493C0C801B70120E03FEF44
:1029B0004FE757E40E94BD1818160CF0AAC0C601D4
:1029C000B50120E030E040E251E40E9493170E94FC
:1029D000BD1506C088EC90E00197F1F7615070409A
:1029E00061157105B9F79CC04BAD5CAD2DAD3EAD29
:1029F000E9A4FAA4C301B4018E01055D1F4FCFAC59
:102A0000AE840E946510CBACDCACEDACFEAC8401B6
:102A100060E070E032C0F80180819181840F951FE1
:102A2000FC018081813C70F02D913C91119781E0F7
:102A300090E0042E02C0880F991F0A94E2F7822BBF
:102A4000932B0FC02D913C91119781E090E0042EC3
:102A500002C0880F991F0A94E2F78095909582230F
:102A6000932311969C938E934F5F5F4F4C155D059A
:102A700090F26F5F7F4F0E5F1F4F6E157F0540F422
:102A800040E050E0DB01AA0FBB1FA55FBE4FEECFB9
:102A90002B853C85B901660F771F660F771F620F84
:102AA000731F80E090E00E94FF195B016C0120E041
:102AB00030E04AEF54E40E9493177B018C0120E040
:102AC00030E040E85FE30E941D1988231CF461E0B8
:102AD00070E023C0C801B70120E03FEF4FE757E4A3
:102AE0000E94BD181816ACF4C601B50120E030E014
:102AF00040E251E40E9493170E94BD1506C088EC85
:102B000090E00197F1F76150704061157105B9F7D8
:102B100007C0C801B7010E94BD15CB010197F1F7AD
:102B20006DAD7EADC4010E942D12D6CDCE5ADF4FC1
:102B30000FB6F894DEBF0FBECDBFCF91DF911F91CE
:102B40000F91FF90EF90DF90CF90BF90AF909F904C
:102B50008F907F906F905F904F903F902F9008954F
:102B60000F931F938C018EEA93E00E943B08C801EB
:102B70000E9474061F910F910895EF92FF920F9398
:102B80001F937B018C0120E030E040E05FE40E9475
:102B9000ED1888238CF0C801B70120E030E040E058
:102BA0005FE40E9435170E94AB199B01AC012050D5
:102BB00030404040504806C0C801B7010E94AB19E0
:102BC0009B01AC01B901CA011F910F91FF90EF90D9
:102BD0000895A0E0B0E0EFEEF5E10C94D51CDC0127
:102BE0002B01FA019C91923008F439C1EB018881E4
:102BF000823008F433C1943069F4843009F02FC175
:102C000011969C9111978981981709F428C1A3EB1B
:102C1000B1E025C1843009F421C18230A9F4923099
:102C200009F01DC19A01AD0188E0EA010990AE01E9
:102C3000E90109929E018150C1F7E2018981119653
:102C40009C918923818308C1923009F407C11296AF
:102C50002D903C901397EB018A819B811496AD9047
:102C6000BD90CD90DC901797EC80FD800E811F8188
:102C70009101281B390BB90137FF04C0662777275C
:102C8000621B730B603271050CF061C012161306E3
:102C90006CF537014801062E04C09694879477940A
:102CA00067940A94D2F721E030E040E050E004C09D
:102CB000220F331F441F551F6A95D2F72150304011
:102CC000404050402E213F21402351232115310502
:102CD0004105510521F021E030E040E050E079016C
:102CE0008A01E628F728082919293CC0232BD1F1AD
:102CF000260E371E35014601062E04C09694879491
:102D0000779467940A94D2F721E030E040E050E0F5
:102D100004C0220F331F441F551F6A95D2F721505C
:102D20003040404050402A213B214C215D2121155B
:102D300031054105510521F021E030E040E050E04F
:102D400059016A01A628B728C828D9280BC08215BE
:102D500093052CF01C01AA24BB24650103C0EE24BA
:102D6000FF24870111969C91D20111968C9198179E
:102D700009F445C0992339F0A80197012A193B09A4
:102D80004C095D0906C0A60195012E193F09400BAB
:102D9000510B57FD08C01182338222822483358370
:102DA000468357831DC081E0818333822282882736
:102DB0009927DC01821B930BA40BB50B84839583AD
:102DC000A683B7830DC0220F331F441F551F2483D2
:102DD00035834683578382819381019793838283CE
:102DE0002481358146815781DA01C9010197A10902
:102DF000B1098F5F9F4FAF4FBF4328F30BC0918343
:102E000033822282EA0CFB1C0C1D1D1DE482F5821C
:102E10000683178383E0808324813581468157812F
:102E200057FF1AC0C901AA2797FDA095BA2F817034
:102E30009070A070B0705695479537952795822B66
:102E4000932BA42BB52B84839583A683B783828190
:102E50009381019693838283DF0101C0D201CD016A
:102E6000CDB7DEB7E2E10C94F11CA0E2B0E0EBE3F9
:102E7000F7E10C94E11C69837A838B839C832D8317
:102E80003E834F835887E9E0EE2EF12CEC0EFD1EB9
:102E9000CE010196B7010E949C1B8E010F5E1F4F51
:102EA000CE010596B8010E949C1B8A8991E0892772
:102EB0008A8BC701B801AE01475E5F4F0E94E915DA
:102EC0000E94C71AA096E6E00C94FD1CA0E2B0E0B8
:102ED000ECE6F7E10C94E11C69837A838B839C8395
:102EE0002D833E834F835887F9E0EF2EF12CEC0EB3
:102EF000FD1ECE010196B7010E949C1B8E010F5E44
:102F00001F4FCE010596B8010E949C1BC701B80156
:102F1000AE01475E5F4F0E94E9150E94C71AA09656
:102F2000E6E00C94FD1CA0E2B0E0E9E9F7E10C94C6
:102F3000D51C69837A838B839C832D833E834F8347
:102F40005887CE010196BE01675F7F4F0E949C1B90
:102F5000CE010596BE016F5E7F4F0E949C1B998536
:102F6000923088F089898230C8F0943019F4823028
:102F700051F404C0843029F4923081F483EB91E061
:102F8000C6C0923049F420E09A858A89981321E0DE
:102F90002A87CE010996BBC0823049F420E09A8589
:102FA0008A89981321E02A8BCE014196B0C02D84E6
:102FB0003E844F8458886D887E888F88988CEE2454
:102FC000FF248701AA24BB24650140E050E060E0B3
:102FD00070E0E0E0F0E0C10181709070892BE9F0D1
:102FE000E60CF71C081D191D9A01AB012A0D3B1DAB
:102FF0004C1D5D1D80E090E0A0E0B0E0E614F70419
:103000000805190520F481E090E0A0E0B0E0BA01E5
:10301000A901480F591F6A1F7B1FAA0CBB1CCC1C9F
:10302000DD1C97FE08C081E090E0A0E0B0E0A82A97
:10303000B92ACA2ADB2A3196E032F10549F0660C3A
:10304000771C881C991C5694479437942794C3CFB7
:10305000FA85EA892B893C898B859C85280F391F45
:103060002E5F3F4F17C0CA0181709070892B61F0AD
:1030700016950795F794E79480E090E0A0E0B0E81B
:10308000E82AF92A0A2B1B2B7695679557954795C1
:103090002F5F3F4F77FDE7CF0CC0440F551F661FD2
:1030A000771F17FD4160EE0CFF1C001F111F215000
:1030B0003040403090E0590790E0690790E479078C
:1030C00060F32B8F3C8FDB01CA018F779070A0706B
:1030D000B07080349105A105B10561F447FD0AC0C7
:1030E000E114F1040105110529F0405C5F4F6F4FB9
:1030F0007F4F40781A8EFE1711F081E08A8F4D8F36
:103100005E8F6F8F78A383E0898FCE0149960E94EE
:10311000C71AA096E2E10C94F11CA8E1B0E0E3E943
:10312000F8E10C94E11C69837A838B839C832D8363
:103130003E834F83588789E0E82EF12CEC0EFD1E6C
:10314000CE010196B7010E949C1B8E010F5E1F4F9E
:10315000CE010596B8010E949C1B8985823040F003
:103160008989823028F0C701B8010E94141C01C06F
:1031700081E06896E6E00C94FD1CA8E1B0E0E3EC89
:10318000F8E10C94E11C69837A838B839C832D8303
:103190003E834F83588789E0E82EF12CEC0EFD1E0C
:1031A000CE010196B7010E949C1B8E010F5E1F4F3E
:1031B000CE010596B8010E949C1B8985823040F0A3
:1031C0008989823028F0C701B8010E94141C01C00F
:1031D0008FEF6896E6E00C94FD1CA8E1B0E0E3EF09
:1031E000F8E10C94E11C69837A838B839C832D83A3
:1031F0003E834F83588789E0E82EF12CEC0EFD1EAC
:10320000CE010196B7010E949C1B8E010F5E1F4FDD
:10321000CE010596B8010E949C1B8985823040F042
:103220008989823028F0C701B8010E94141C01C0AE
:103230008FEF6896E6E00C94FD1CA8E1B0E0E3E2B5
:10324000F9E10C94E11C69837A838B839C832D8341
:103250003E834F83588789E0E82EF12CEC0EFD1E4B
:10326000CE010196B7010E949C1B8E010F5E1F4F7D
:10327000CE010596B8010E949C1B8985823040F0E2
:103280008989823028F0C701B8010E94141C01C04E
:1032900081E06896E6E00C94FD1CA8E0B0E0E3E570
:1032A000F9E10C94DE1C9B01AC0183E08983DA0117
:1032B000C9018827B7FD83959927AA27BB27B82E70
:1032C000211531054105510519F482E089833AC081
:1032D0008823A9F0203080E0380780E0480780E8A4
:1032E000580729F460E070E080E09FEC30C0EE24E5
:1032F000FF248701E21AF30A040B150B02C07901BF
:103300008A018EE1C82ED12CDC82CB82ED82FE8236
:103310000F831887C801B7010E94781A0197181601
:10332000190684F4082E04C0EE0CFF1C001F111FA8
:103330000A94D2F7ED82FE820F831887C81AD90A41
:10334000DC82CB82BA82CE0101960E94C71A2896EF
:10335000E9E00C94FA1CACE0B0E0E1EBF9E10C948C
:10336000E51C69837A838B839C83CE010196BE0121
:103370006B5F7F4F0E949C1B8D81823061F1823098
:1033800050F1843021F48E81882351F12EC02F8199
:10339000388537FD20C06E812F3131051CF0662342
:1033A000F9F023C08EE190E0821B930B29853A85CA
:1033B0004B855C8504C056954795379527958A952A
:1033C000D2F76623B1F050954095309521953F4F47
:1033D0004F4F5F4F0EC020E030E040E050E009C0AA
:1033E0002FEF3FEF4FEF5FE704C020E030E040E019
:1033F00050E8B901CA012C96E2E00C94011DA8E046
:10340000B0E0E5E0FAE10C94DD1C7B018C01611574
:1034100071058105910519F482E0898360C083E01C
:1034200089838EE1C82ED12CDC82CB82ED82FE8294
:103430000F831887C801B7010E94781AFC013197E1
:10344000F7FF3BC0222733272E1B3F0B5701680194
:10345000022E04C0D694C794B794A7940A94D2F7C6
:1034600040E050E060E070E081E090E0A0E0B0E09B
:1034700004C0880F991FAA1FBB1F2A95D2F7019776
:10348000A109B1098E219F21A023B1230097A10595
:10349000B10521F041E050E060E070E04A295B298D
:1034A0006C297D294D835E836F8378878EE190E060
:1034B0008E1B9F0B9C838B8312C0309781F00E2E46
:1034C00004C0EE0CFF1C001F111F0A94D2F7ED82FE
:1034D000FE820F831887CE1ADF0ADC82CB821A8223
:1034E000CE0101960E94C71A2896EAE00C94F91CB6
:1034F000EF92FF920F931F937B018C0180E0E816FF
:1035000080E0F80681E0080780E0180788F48FEF74
:10351000E816F1040105110531F028F088E090E08B
:10352000A0E0B0E017C080E090E0A0E0B0E012C002
:1035300080E0E81680E0F80680E0080781E01807E0
:1035400028F088E190E0A0E0B0E004C080E190E0E5
:10355000A0E0B0E020E230E040E050E0281B390B72
:103560004A0B5B0B04C016950795F794E7948A9570
:10357000D2F7F701E554FE4F8081281B310941093C
:103580005109C9011F910F91FF90EF900895DF92AB
:10359000EF92FF920F931F93FC01E480F580068168
:1035A0001781D1808081823048F480E090E0A0E1F2
:1035B000B0E0E82AF92A0A2B1B2BA5C0843009F4B5
:1035C0009FC0823021F4EE24FF24870105C0E1145E
:1035D000F1040105110519F4E0E0F0E096C0628104
:1035E00073819FEF623879070CF05BC022E83FEFF0
:1035F000261B370B2A3131052CF020E030E040E06B
:1036000050E02AC0B801A701022E04C07695679544
:10361000579547950A94D2F781E090E0A0E0B0E09A
:1036200004C0880F991FAA1FBB1F2A95D2F70197C4
:10363000A109B1098E219F21A023B1230097A105E3
:10364000B10521F081E090E0A0E0B0E09A01AB018B
:10365000282B392B4A2B5B2BDA01C9018F7790700D
:10366000A070B07080349105A105B10539F427FF31
:1036700009C0205C3F4F4F4F5F4F04C0215C3F4F5C
:103680004F4F5F4FE0E0F0E02030A0E03A07A0E0CD
:103690004A07A0E45A0710F0E1E0F0E079018A015E
:1036A00027C06038710564F5FB01E158FF4FD80170
:1036B000C7018F779070A070B07080349105A1051C
:1036C000B10539F4E7FE0DC080E490E0A0E0B0E081
:1036D00004C08FE390E0A0E0B0E0E80EF91E0A1FFE
:1036E0001B1F17FF05C016950795F794E7943196B1
:1036F00087E016950795F794E7948A95D1F705C06A
:10370000EE24FF248701EFEFF0E06E2F6795662728
:103710006795902F9F77D794DD24D7948E2F869529
:10372000492F462B582F5D29B701CA011F910F91D0
:10373000FF90EF90DF900895FC01DB014081518103
:103740002281622F6F7770E0221F2227221F938130
:10375000892F880F822B282F30E0991F9927991FD6
:1037600011969C93119721153105A9F54115510525
:103770006105710511F482E037C082E89FEF13966E
:103780009C938E9312979A01AB0167E0220F331F2F
:10379000441F551F6A95D1F783E08C930DC0220F0B
:1037A000331F441F551F12968D919C9113970197BB
:1037B00013969C938E931297203080E0380780E018
:1037C000480780E4580758F314962D933D934D9382
:1037D0005C93179708952F3F310579F441155105F2
:1037E0006105710519F484E08C93089564FF03C0AA
:1037F00081E08C9312C01C9210C02F57304013965A
:103800003C932E93129783E08C9387E0440F551FCF
:10381000661F771F8A95D1F7706414964D935D9358
:103820006D937C93179708951F93DC01FB019C9186
:10383000923008F447C08081823008F443C094304D
:1038400051F411961C91843099F58181682F70E0B4
:10385000611B71093FC0843021F0923031F4823015
:10386000B9F18181882389F12DC011961C9111979E
:103870008230F1F081811817D9F412962D913C9184
:103880001397828193818217930794F02817390741
:10389000BCF014968D919D910D90BC91A02D24812A
:1038A000358146815781281739074A075B0718F485
:1038B000112341F00AC082179307A407B50740F40B
:1038C000112319F061E070E005C06FEF7FEF02C0D7
:1038D00060E070E0CB011F910895629FD001739F5B
:1038E000F001829FE00DF11D649FE00DF11D929F9C
:1038F000F00D839FF00D749FF00D659FF00D9927DB
:10390000729FB00DE11DF91F639FB00DE11DF91FFE
:10391000BD01CF0111240895AA1BBB1B51E107C0B3
:10392000AA1FBB1FA617B70710F0A61BB70B881F4F
:10393000991F5A95A9F780959095BC01CD010895DE
:1039400097FB092E07260AD077FD04D0E5DF06D0C5
:1039500000201AF4709561957F4F0895F6F79095C1
:1039600081959F4F0895A1E21A2EAA1BBB1BFD0152
:103970000DC0AA1FBB1FEE1FFF1FA217B307E4074E
:10398000F50720F0A21BB30BE40BF50B661F771FA6
:10399000881F991F1A9469F7609570958095909586
:1039A0009B01AC01BD01CF0108952F923F924F9230
:1039B0005F926F927F928F929F92AF92BF92CF92BF
:1039C000DF92EF92FF920F931F93CF93DF93CDB7C8
:1039D000DEB7CA1BDB0B0FB6F894DEBF0FBECDBF40
:1039E00009942A88398848885F846E847D848C8411
:1039F0009B84AA84B984C884DF80EE80FD800C811A
:103A00001B81AA81B981CE0FD11D0FB6F894DEBFFC
:103A10000FBECDBFED010895CF93DF93BC0182307F
:103A2000910510F462E070E0A091DC03B091DD0339
:103A3000ED01E0E0F0E040E050E021C088819981B4
:103A40008617970769F48A819B81309719F09383D1
:103A5000828304C09093DD038093DC03FE0134C0B5
:103A60006817790738F44115510519F0841795073F
:103A700008F4AC01FE018A819B819C01E901209739
:103A8000E9F641155105A9F1CA01861B970B049768
:103A900008F4BA01E0E0F0E02AC08D919C91119702
:103AA00084179507F9F46417750781F412968D91C0
:103AB0009C911397309719F09383828304C090935D
:103AC000DD038093DC03FD0132964FC0CA01861BE3
:103AD000970BFD01E80FF91F6193719302978D9386
:103AE0009C9343C0FD01828193819C01D901109771
:103AF000A1F68091DA039091DB03892B41F4809148
:103B0000BD029091BE029093DB038093DA03409153
:103B1000BF025091C0024115510541F44DB75EB747
:103B20008091BB029091BC02481B590B2091DA0393
:103B30003091DB0324173507B0F4CA01821B930BC5
:103B40008617970780F0AB014E5F5F4F841795078C
:103B500050F0420F531F5093DB034093DA03F901F7
:103B60006193719302C0E0E0F0E0CF01DF91CF916B
:103B70000895CF93DF93009709F450C0EC0122978A
:103B80001B821A82A091DC03B091DD03109709F12A
:103B900040E050E0AC17BD0708F1BB83AA83FE01EB
:103BA00021913191E20FF31FAE17BF0779F48D9188
:103BB0009C911197280F391F2E5F3F4F398328831F
:103BC00012968D919C9113979B838A834115510581
:103BD00071F4D093DD03C093DC0320C012968D9165
:103BE0009C911397AD01009711F0DC01D3CFFA013E
:103BF000D383C28321913191E20FF31FCE17DF07E8
:103C000069F488819981280F391F2E5F3F4FFA018F
:103C1000318320838A819B8193838283DF91CF913B
:103C20000895DC0101C06D9341505040E0F70895C4
:103C3000FB01DC018D91019080190110D9F3990BE2
:103C40000895FB01DC014150504030F08D9101900E
:103C5000801919F40020B9F7881B990B0895FB010E
:103C6000DC014150504048F001900D920020C9F70E
:103C700001C01D9241505040E0F708950F931F93EB
:103C8000CF93DF938C01EB01009731F4611571053F
:103C900019F420E030E038C081E090E06EE070E0A0
:103CA0000E94C71EFC019C01009771F180E883838C
:103CB000209771F0D387C28781E883838091DE03E8
:103CC0009091DF03892B21F4F093DF03E093DE036F
:103CD00001151105C9F011870087838182608383F4
:103CE0008091E0039091E103892B71F4F093E1035B
:103CF000E093E0038091E2039091E303892B21F4A8
:103D0000F093E303E093E203C901DF91CF911F91A8
:103D10000F9108950F931F93CF93DF938C01E09140
:103D2000E003F091E103838181FF21C0C0E0D0E096
:103D30000DC0E091E003F091E10320853185BF01E2
:103D4000F9010995892B11F0CFEFDFEFF80181918F
:103D50008F01882371F7E091E003F091E103208562
:103D600031858AE0BF01F9010995892B11F0CFEF68
:103D7000DFEFCE01DF91CF911F910F910895F99957
:103D8000FECF92BD81BDF89A992780B508950F9313
:103D90001F93CF93DF93689F8001699F100D789FD9
:103DA000100D1124C8010E940C1DEC01009729F090
:103DB00060E070E0A8010E94111ECE01DF91CF915A
:0A3DC0001F910F910895F894FFCFB2
:103DCA006D696E7469612E67696600FFFFFFFFFF08
:103DDA00FFFFFFFFFFFFFFFFFFFFFFFFFFFFFFFFE9
:103DEA00FFFFFFFFFFFFFF45313300453134004538
:103DFA00303400453035004530360045303700450F
:103E0A003038004530390045313000453131004500
:103E1A0031350045303100453032004530330045F8
:103E2A0031370045313800453132004531390045D6
:103E3A0032300045323100453136004532320045D4
:103E4A00323300474946004532340038376100387A
:103E5A003961004532350045323600453237004572
:103E6A003238004532390045333000453331004598
:103E7A0033320000000000000000000001020203CB
:103E8A0003030304040404040404040505050505E6
:103E9A0005050505050505050505050606060606C3
:103EAA0006060606060606060606060606060606A8
:103EBA000606060606060606060606070707070793
:103ECA000707070707070707070707070707070778
:103EDA000707070707070707070707070707070768
:103EEA000707070707070707070707070707070758
:103EFA000707070707070707070707080808080843
:103F0A000808080808080808080808080808080827
:103F1A000808080808080808080808080808080817
:103F2A000808080808080808080808080808080807
:103F3A0008080808080808080808080808080808F7
:103F4A0008080808080808080808080808080808E7
:103F5A0008080808080808080808080808080808D7
:103F6A0008080808080808080808080808080808C7
:103F7A0008080808080808080808082000E40300D8
:023F8A00000035
:00000001FF
